S018000054656D7048756D69646974794D4567612E73726563CF
S113000071C000008EC000008CC000008AC00000D7
S113001088C0000086C0000084C0000082C00000C8
S113002080C000007EC000007CC000007AC00000D8
S113003078C0000076C0000074C0000072C00000E8
S113004070C000006EC000006CC000006AC00000F8
S113005068C0000092C5000064C0000062C00000D7
S113006060C000005EC000005CC000005AC0000018
S113007058C0000056C0000054C0000052C0000028
S113008050C000004EC000004CC000004AC0000038
S113009048C0000046C0000044C0000042C0000048
S11300A040C000003EC000003CC000003AC0000058
S11300B038C0000036C0000034C0000032C0000068
S11300C030C000002EC000002CC000002AC0000078
S11300D028C0000026C0000024C0000022C0000088
S11300E020C0000011241FBECFEFD1E2DEBFCDBF80
S11300F000E00CBF16E0A0E0B2E0E2E5FEE000E0C4
S11301000BBF02C007900D92AA34B107D9F72EE0B5
S1130110AAE4B6E001C01D92A139B207E1F70BD100
S113012096C66ECF2F923F924F925F926F927F92BC
S11301308F929F92AF92BF92CF92DF92EF92FF92F3
S11301400F931F93CF93DF9320915C063091900E11
S1130150F894EDB6FEB67894EEE5F6E0220FCFE023
S1130160D2E0C20FD11D1991D881C12F18811A3A3A
S113017021F080915C06912D4CC5220FE20FF11DF8
S1130180E192F08220918F0E30915D0640917E06BF
S1130190232B242B30915C064091900E68E08894C8
S11301A033953770441F411D742F422319F06A950B
S11301B0B9F7E8CF30935C067093900EEEE5F6E065
S11301C0330F330FE30FF11D21913081F8942DBFCC
S11301D03EBF7894DF91CF911F910F91FF90EF90E4
S11301E0DF90CF90BF90AF909F908F907F906F9053
S11301F05F90852D4F90942D3F90632D2F90722DFD
S11302000895EEE0F2E0E80FF11D849108950102F3
S1130210040810204080389AC1E0209150063091A3
S1130220510680910A0290910B02281739072CF489
S1130230C8B981E090E07FD4F0CF2091500630918E
S1130240510680910C0290910D02281739072CF069
S113025018B881E090E06FD4E0CF82E090E06BD4F6
S1130260DCCF7894E2E5F6E01182108213821282E8
S11302701582148217821682118610860895CF92F1
S1130280DF92EF92FF92CF93DF936A017B01C82F35
S1130290D0E0CC0FDD1FC050DE4FE881F98188E14A
S11302A08183E881F981228360E472E48FE090E045
S11302B0A7019601FAD4E881F981DA01C90101970D
S11302C0A109B10995838483DF91CF91FF90EF90C9
S11302D0DF90CF900895813081F038F08230A9F01A
S11302E08330D9F0E0ECF0E020C0E0ECF0E0808175
S11302F085FFFDCF6093C6000895E8ECF0E08081AF
S113030085FFFDCF6093CE000895E0EDF0E080819D
S113031085FFFDCF6093D6000895E0E3F1E080818E
S113032085FFFDCF609336010895808185FFFDCF61
S11303306093C600089526E230E040E05BE460E0AC
S113034070E080E09CDF26E230E040E659E060E0C7
S113035070E081E094DF78D341E06BE071E082E00B
S113036035D341E067E473E081E030D341E06EEFE0
S113037072E080E02BD362E480E0ADDFFCCF81301B
S113038081F038F08230A9F08330D9F0E0ECF0E06D
S113039020C0E0ECF0E080818823ECF78091C60077
S11303A00895E8ECF0E080818823ECF78091CE009A
S11303B00895E0EDF0E080818823ECF78091D60089
S11303C00895E0E3F1E080818823ECF78091360121
S11303D0089580818823ECF78091C6000895CF9317
S11303E0DF93FC016081662339F0EC01219680E003
S11303F072DF69916111FBCFDF91CF910895AF92C4
S1130400BF92CF92DF92EF92FF920F931F93CF93FD
S1130410DF93CDB7DEB72F970FB6F894DEBF0FBECC
S1130420CDBFE82EF12C062F10E09E2D8827802BBF
S1130430912B6AE070E026D4A62EB72ECB01880F4C
S1130440991F880F991F880F991F860F971F65E0C2
S113045070E018D46B0180E2C80ED11CD092510612
S1130460C092500620910E02213009F052C079D377
S11304702AE030E0AE014F5F5F4F8BD4CE0101968E
S1130480AEDF8FE192E0ABDF4AE050E0BE016F5F88
S11304907F4FC6016AD4CE010196A1DF8A2D9B2D20
S11304A06AE070E0EFD34AE050E0BE016F5F7F4F37
S11304B05CD482E292E093DFCE01019690DF8FE17B
S11304C092E08DDF80910A0290910B024AE050E0A5
S11304D0BE016F5F7F4F49D4CE01019680DF8091CA
S11304E00C0290910D024AE050E0BE016F5F7F4F15
S11304F03CD484E292E073DFCE01019670DF309B3E
S113050004C087E292E06BDF53C082E392E067DFCE
S11305104FC080910E02823009F04AC022D320E1FC
S113052030E0AE014F5F5F4F34D4CE01019657DF08
S11305308FE192E054DF40E150E0BE016F5F7F4FF6
S1130540C70113D4CE0101964ADF40E150E0BE0159
S11305506F5F7F4FC80109D4CE01019640DF8FE160
S113056092E03DDF80910A0290910B0240E150E05D
S1130570BE016F5F7F4FF9D3CE01019630DF84E275
S113058092E02DDF80910C0290910D0240E150E049
S1130590BE016F5F7F4FE9D3CE01019620DF309B10
S11305A004C08DE392E01BDF03C084E492E017DF14
S11305B02F960FB6F894DEBF0FBECDBFDF91CF915B
S11305C01F910F91FF90EF90DF90CF90BF90AF906D
S11305D00895E2E5F6E08481668122819081290F05
S11305E0280F260F30E0408551854217530711F438
S11305F006CF08958BE492E0F2CE08950F2EF2E533
S1130600EF2EF6E0FF2EF02D0CE516E00F2EF8EE9F
S1130610CF2EF3E0DF2EF02D81E0B1DE8A3AE9F44B
S1130620E70181E0ACDE90E089939993C017D1078C
S1130630C1F781E0A4DE893979F7CBDF12DE80913E
S11306400802909109029C012C9DC0012D9D900DE2
S11306503C9D900D11246FD2DFCF85E090E06BD2EA
S1130660DBCF8FE693E0BBDE8CEC93E0B8DE85E075
S113067094E0B5DE85E494E0B2DE8AE894E0AFDE8F
S11306808EEE94E0ACDE85E595E0A9CE0895CF9397
S1130690DF93CDB7DEB76E970FB6F894DEBF0FBE0B
S11306A0CDBF0F2EF0ECEF2EF12CF02D0F2EFEE02F
S11306B05F2EF02D6E0125E0C20ED11C212C312CB1
S11306C0CE010C969C8F8B8F66246394712CFE0153
S11306D03B96FE8FED8F5E01FAE0AF0EB11CF70181
S11306E0808188230CF06EC119821A821B821C82BD
S11306F0F601252D11922A95E9F7CE0101964C01B8
S1130700810180E03CDE482E682F80E0E4DD9AE041
S1130710491203C0025011090FC08FE9840D8A31B8
S113072010F4E0EE4E0EF40141924F010F5F1F4FA3
S11307300231110531F7810144E050E067ED75E0C5
S1130740CE01019604D3892B11F48BDF3BC146E023
S113075050E06CED75E0CE010196F9D2892B21F4BD
S1130760F1E0F0930E022EC147E050E063EE75E035
S1130770CE010196ECD2892B19F410920E0222C1FB
S113078047E050E06BEE75E0CE010196E0D2892B94
S113079061F480910E02823021F421E020930E0254
S11307A011C132E030930E020DC148E050E063EF16
S11307B075E0CE010196CBD2892BB1F530920B02B4
S11307C020920A02093011050CF4FCC00F5F1F4F80
S11307D0E1E0F0E0EC0FFD1FE00FF11F862D972DF7
S11307E040910A0250910B02229130E020533109CA
S11307F0289FB001299F700D389F700D1124460F5A
S1130800571F50930B0240930A029C01220F331F7F
S1130810880F991F880F991F880F991F820F931FA4
S1130820EA15FB05E9F6CEC049E050E06CEF75E04F
S1130830CE0101968CD2892BC1F530920D02209203
S11308400C020A3011050CF4BDC00F5F1F4FE1E02C
S1130850F0E0EC0FFD1FE00FF11F862D972D409166
S11308600C0250910D02229130E020533109289F4F
S1130870B001299F700D389F700D1124460F571F2A
S113088050930D0240930C029C01220F331F880FDA
S1130890991F880F991F880F991F820F931F2D8D01
S11308A03E8DE217F307D9F68DC04AE050E066E0CA
S11308B076E0CE0101964BD2892BC1F53092090224
S11308C0209208020B3011050CF47CC00F5F1F4FFF
S11308D0E1E0F0E0EC0FFD1FE00FF11F862D972DF6
S11308E06091080270910902229130E0205331098D
S11308F0289FA001299F500D389F500D1124460FA9
S1130900571F50930902409308029C01220F331F82
S1130910880F991F880F991F880F991F820F931FA3
S11309202B8D3C8DE217F307D9F64CC043E050E021
S113093061E176E0CE0101960AD2892B09F03FC02D
S113094080910A0290910B024AE050E0BE016D5E74
S11309507F4F0BD285E196E042DDCE0143963FDD29
S113096080910C0290910D024AE050E0BE016D5E50
S11309707F4FFBD18CE196E032DDCE0143962FDD33
S113098080910E02813021F486E296E028DD03C0D6
S113099080E396E024DD80910802909109024AE008
S11309A050E0BE016D5E7F4F1FD286E396E017DDF7
S11309B0CE01439614DD81E496E011DD03C085E4A5
S11309C096E00DDD862D972DB6D089CECF93DF939B
S11309D0C82FD42FE82FF0E0EE0FFF1FEE0FFF1FFC
S11309E09F01225A394FF901A281B3816C93CD0141
S11309F00197FC0170830197FC0110825597F9015E
S1130A00B183A0838C2FFDDBDD2341F0982F9095DB
S1130A1080918F0E982390938F0E05C090918F0E26
S1130A20982B90938F0E80915C06C81301C0AADBAB
S1130A30DF91CF91089582E084BD9AEF97BD8093B2
S1130A406E0083E085BD0895CF93DF93F8948EEF15
S1130A5080938F0E10927E0610925D0610925C06B3
S1130A6081E08093900ECEE5D6E08EE797E09983FF
S1130A7088839B838A838EE798E09D838C839F83FE
S1130A808E838EE799E0998788879B878A878EE78C
S1130A909AE09D878C879F878E878EE79BE0998B52
S1130AA0888B9B8B8A8B8EE79CE09D8B8C8B9F8B9A
S1130AB08E8B8EE79DE0998F888F9B8F8A8F8EE730
S1130AC09EE09D8F8C8F9F8F8E8F8AEA80937F0606
S1130AD080937F0780937F0880937F0980937F0AA8
S1130AE080937F0B80937F0C80937F0DA4DFEDB701
S1130AF0FEB7A881B98185818C93A881B98184814D
S1130B0011978C93A881B981838112978C93A881C2
S1130B10B981828113978C93888199812181FC0109
S1130B20349720838881998105979EBF8DBF7894DF
S1130B30DF91CF9108959C019FB7F894E0915C06F2
S1130B40F0E0EE0FFF1FE158F14F31832083209135
S1130B505D068091900E822B80935D069FBFE2CA52
S1130B6008952FB7F89460914A0670914B068091CE
S1130B704C0690914D062FBF08951F920F920FB609
S1130B800F9211240BB60F922F933F934F935F93C1
S1130B908F939F93AF93BF93EF93FF9380914A06F4
S1130BA090914B06A0914C06B0914D060196A11D63
S1130BB0B11D80934A0690934B06A0934C06B093C4
S1130BC04D0630915D06EFE7FEE04FE85EE021E080
S1130BD080819181019781939193892B19F4822FBC
S1130BE080953823220FE417F50791F730935D06BB
S1130BF0FF91EF91BF91AF919F918F915F914F9131
S1130C003F912F910F900BBE0F900FBE0F901F902E
S1130C101895AC01279A2F982FEF31EE74E02150EC
S1130C2030407040E1F700C0000060E080E05523F0
S1130C30FCF0262F382F95B1905895B99FEFE0E737
S1130C4072E09150E0407040E1F700C0000095B1BF
S1130C50905895B99FEFE9E678E19150E0407040F3
S1130C60E1F700C000002F5F3F4F421753071CF706
S1130C709FEFE3E224EF9150E0402040E1F700C011
S1130C800000D5CF97FB072E16F4009406D077FD0D
S1130C9008D027D007FC05D03EF4909581959F4F4E
S1130CA00895709561957F4F0895052E97FB16F46E
S1130CB000940FD057FD05D028D007FC02D046F48D
S1130CC008C050954095309521953F4F4F4F5F4F49
S1130CD0089590958095709561957F4F8F4F9F4FA4
S1130CE00895AA1BBB1B51E107C0AA1FBB1FA6176F
S1130CF0B70710F0A61BB70B881F991F5A95A9F7C1
S1130D0080959095BC01CD010895A1E21A2EAA1BED
S1130D10BB1BFD010DC0AA1FBB1FEE1FFF1FA217A7
S1130D20B307E407F50720F0A21BB30BE40BF50BA4
S1130D30661F771F881F991F1A9469F7609570952D
S1130D40809590959B01AC01BD01CF010895FB01F5
S1130D50DC014150504030F08D910190801919F41C
S1130D600020B9F7881B990B08954532510518F4F2
S1130D70423008F004C0FB011082CB010895BB2768
S1130D804A3031F4992322F4BDE2909581959F4F26
S1130D9036C02532310518F4223008F004C0FA01B7
S1130DA01082CA010895BB27FA01A62F62177105A4
S1130DB081059105330B30FB66F0AA27660F771F78
S1130DC0881F991FAA1FA21710F0A21B6395385001
S1130DD0A9F7A05DAA3308F0A95DA19336F7B11174
S1130DE0B1931082CA0123C04532510518F4423030
S1130DF008F004C0FB011082CB010895BB27FB015E
S1130E005527AA27880F991FAA1FA41710F0A41BFF
S1130E1083955051B9F7A05DAA3308F0A95DA19359
S1130E20009779F7B111B1931192CB0100C0DC01A5
S1130E30FC01672F71917723E1F7329704C07C910D
S1130E406D9370836291AE17BF07C8F30895F89449
S1050E50FFCFCE
S1130E52C000C800D0003001020046004B00017FF0
S1130E62067F077F087F097F0A7F0B7F0C7F0D2C8B
S1130E7220002E00202C002C2048454154494E4786
S1130E820D002C20434F4F4C494E470D002C20207F
S1130E9231200D002C202030200D00436865636B47
S1130EA273756D204572726F722E200D0045727239
S1130EB26F723A20496E76616C69642050494E2003
S1130EC26E756D626572202830202D203533292EEF
S1130ED2200D004572726F723A20496E76616C6918
S1130EE264204D4F44452028494E5055542C204FE0
S1130EF255545055542C20494E5055545F50554C1E
S1130F024C5550292E200D004572726F723A2049B9
S1130F126E76616C69642056414C554520284849D7
S1130F2247482C204C4F57292E200D004E6F20632A
S1130F326F6E6E656374696F6E20726573706F6E27
S1130F42736520647572696E67204C4F5720647212
S1130F526976652E20506C656173652063686563EC
S1130F626B2070696E20636F6E6E656374696F6E59
S1130F72732E200D004E6F20636F6E6E656374696D
S1130F826F6E20726573706F6E736520647572691B
S1130F926E6720484947482064726976652E20505E
S1130FA26C6561736520636865636B2070696E208C
S1130FB2636F6E6E656374696F6E732E200D0053DA
S1130FC24554090909090972657475726E732074AE
S1130FD268652076616C756573206F6620616C6C40
S1130FE22074686520706172616D65746572207326
S1130FF2657474696E67732028544C4F572C2054BF
S1131002484947482C20524154452C204845582CE5
S113101220504552494F44292E200D005345542057
S11310224F4E09090909656E61626C657320636F2D
S11310326E74726F6C6C657220746F2073656E646B
S11310422072656164696E677320746F20686F73C0
S1131052742E200D00534554204F464609090909B0
S113106264697361626C657320636F6E74726F6C12
S11310726C65722066726F6D2073656E64696E674B
S11310822072656164696E677320746F20686F7380
S1131092742E200D00534554204845583D3C4F4E74
S11310A2206F72204F46463E097377697463686500
S11310B2732072656164696E6720666F726D617414
S11310C2206265747765656E204153434949206106
S11310D26E64204845582E200D0053455420544C2C
S11310E24F573D3C76616C75653E09096C6F7720FC
S11310F274656D706572617475726520736574745C
S1131102696E672E2049662074656D7020697320AC
S113111262656C6F7720746869732C204C45442F88
S11311226865617465722073686F756C64206265AA
S1131132207475726E6564206F6E2E200D00534507
S1131142542054484947483D3C76616C75653E20BD
S113115209686967682074656D7065726174757277
S1131162652073657474696E672E20496620746500
S11311726D702069732061626F766520746869738B
S11311822C204C45442F6865617465722073686F26
S1131192756C64206265207475726E6564206F6676
S11311A2662E200D0053455420504552494F443D6C
S11311B23C76616C75653E0974696D6520696E20C3
S11311C27365636F6E6473206265747765656E2000
S11311D272656164696E67732073656E7420746FDF
S11311E22074686520686F73742E20416E20696EC6
S11311F274656765722076616C7565206E6F742004
S11312026C657373207468616E20322C206E6F7467
S11312122067726561746572207468616E20363568
S11312223533352E200D0048454C5000534554208B
S11312324F4E00534554204F4646005345542048D0
S113124245580053455420544C4F5700534554209D
S113125254484947480053455420504552494F4445
S11312620053455400744C6F773A20002020744890
S11312726967683A20002020646563696D616C00C7
S11312822020484558002020706572696F643A2016
S10D12920020200D003F3F3F0D0037
S9030000FC
