:1000000071C000008EC000008CC000008AC00000DB
:1000100088C0000086C0000084C0000082C00000CC
:1000200080C000007EC000007CC000007AC00000DC
:1000300078C0000076C0000074C0000072C00000EC
:1000400070C000006EC000006CC000006AC00000FC
:1000500068C0000066C4000064C0000062C0000008
:1000600060C000005EC000005CC000005AC000001C
:1000700058C0000056C0000054C0000052C000002C
:1000800050C000004EC000004CC000004AC000003C
:1000900048C0000046C0000044C0000042C000004C
:1000A00040C000003EC000003CC000003AC000005C
:1000B00038C0000036C0000034C0000032C000006C
:1000C00030C000002EC000002CC000002AC000007C
:1000D00028C0000026C0000024C0000022C000008C
:1000E00020C0000011241FBECFEFD1E2DEBFCDBF84
:1000F00000E00CBF16E0A0E0B2E0E4E7FBE000E0C7
:100100000BBF02C007900D92A039B107D9F72EE0BE
:10011000A0E9B6E001C01D92A73DB207E1F7C8D043
:1001200027C56ECF2F923F924F925F926F927F9230
:100130008F929F92AF92BF92CF92DF92EF92FF92F7
:100140000F931F93CF93DF932091A2063091D60E89
:10015000F894EDB6FEB67894E4EAF6E0220FC0EE2D
:10016000D2E0C20FD11D1991D881C12F18811A3A3E
:1001700021F08091A206912D20C4220FE20FF11DE3
:10018000E192F0822091D50E3091A3064091C406F1
:10019000232B242B3091A2064091D60E68E0889440
:1001A00033953770441F411D742F422319F06A950F
:1001B000B9F7E8CF3093A2067093D60EE4EAF6E0E2
:1001C000330F330FE30FF11D21913081F8942DBFD0
:1001D0003EBF7894DF91CF911F910F91FF90EF90E8
:1001E000DF90CF90BF90AF909F908F907F906F9057
:1001F0005F90852D4F90942D3F90632D2F90722D01
:100200000895EEE0F2E0E80FF11D849108950102F7
:10021000040810204080389AC1E0809196069091A1
:1002200097068E3491052CF4C8B981E090E063D331
:10023000F4CF18B885E090E05ED3EFCF7894E8E98A
:10024000F6E01182108213821282158214821782C4
:100250001682118610860895CF92DF92EF92FF9258
:10026000CF93DF936A017B01C82FD0E0CC0FDD1F55
:10027000C050DE4FE881F98188E18183E881F9810E
:10028000228360E472E48FE090E0A7019601E1D35D
:10029000E881F981DA01C9010197A109B1099583C2
:1002A0008483DF91CF91FF90EF90DF90CF900895FE
:1002B00026E030E040E05BE460E070E080E0CCDF2E
:1002C000A3D241E06BE071E081E060D241E06EEBEF
:1002D00073E080E05BD2FFCF813081F038F0823074
:1002E000A9F08330D9F0E0ECF0E020C0E0ECF0E0E1
:1002F000808185FFFDCF6093C6000895E8ECF0E0B3
:10030000808185FFFDCF6093CE000895E0EDF0E0A1
:10031000808185FFFDCF6093D6000895E0E3F1E092
:10032000808185FFFDCF609336010895808185FF30
:10033000FDCF6093C6000895CF93DF93FC016081E9
:10034000662339F0EC01219680E0C6DF69916111E6
:10035000FBCFDF91CF910895CF92DF92EF92FF9282
:100360000F931F93CF93DF93CDB7DEB728970FB6C8
:10037000F894DEBF0FBECDBF70E09B01382BC901E2
:100380000F2EFAE0CF2ED12CF02DB6014FD37B01EA
:10039000CB01880F991F880F991F880F991F860F0F
:1003A000971F65E070E042D38B01005E1F4F4AE06B
:1003B00050E0BE016F5F7F4FC8019DD380EF92E098
:1003C000BBDFCE010196B8DFC701B6012FD34AE0EB
:1003D00050E0BE016F5F7F4F8ED387EF92E0ACDFBE
:1003E000CE010196A9DF88E393E0A6DF109397067C
:1003F0000093960628960FB6F894DEBF0FBECDBFC9
:10040000DF91CF911F910F91FF90EF90DF90CF90F0
:100410000895EF92FF920F931F93CF93DF93CDB781
:10042000DEB728970FB6F894DEBF0FBECDBF70E0E1
:100430009B01382BC9010AE010E0B801F7D27B011B
:1004400089EF92E079DF4AE050E0BE016F5F7F4FB5
:10045000C70151D3CE0101966FDFC701B801E6D2C3
:100460004AE050E0BE016F5F7F4F45D387EF92E0D7
:1004700063DFCE01019660DF80E093E05DDF2896C8
:100480000FB6F894DEBF0FBECDBFDF91CF911F91A5
:100490000F91FF90EF900895E8E9F6E08081628186
:1004A000262F280F9481290F9681290F30E040854F
:1004B00051854217530739F4ACDFE8E9F6E066816D
:1004C00084814ACF089583E093E036CF08951F9347
:1004D000CF93DF93EC01162FC69718F085E193E0D8
:1004E0002BDF133018F08BE393E026DF111123C0CC
:1004F000CC0FDD1FCC0FDD1FC85FDD4FE881F98118
:10050000308181E090E0AC010B8002C0440F551FA8
:100510000A94E2F7242F209523232083E881F98190
:1005200021810B8002C0880F991F0A94E2F7809501
:100530008223818339C01130A1F4CC0FDD1FCC0F91
:10054000DD1FC85FDD4FE881F981208181E090E007
:100550000B8002C0880F991F0A94E2F7822B8083D8
:1005600023C0123009F5CC0FDD1FCC0FDD1FC85F93
:10057000DD4FE881F981308181E090E0AC010B80B2
:1005800002C0440F551F0A94E2F7242F209523231D
:100590002083E881F98121810B8002C0880F991F97
:1005A0000A94E2F7822B8183DF91CF911F91089506
:1005B000CF93DF93EC01C69718F085E193E0BCDEA2
:1005C000CC0FDD1FCC0FDD1FC85FDD4FE881F98147
:1005D0003197808190E00B8002C0959587950A94B1
:1005E000E2F781709927DF91CF910895CF92DF9242
:1005F000EF92FF920F931F93CF93DF9308E916E0DA
:100600000F2EF2EAEF2EF6E0FF2EF02D6894CC24A8
:10061000C3F8D12C1092950610929406CC2DDD2DA6
:100620008091940690919506880F991F9093950656
:100630008093940687E090E0BBDF892BD9F787E0B1
:1006400090E0B6DF892BD9F3F0EAFA95F1F787E06D
:1006500090E0AEDF892B49F0809194069091950649
:10066000816090939506809394062197C9F68091B6
:10067000940690919506F801819391938F01EE1560
:10068000FF0541F6DF91CF911F910F91FF90EF9001
:10069000DF90CF9008950F931F93CF93DF93EC01DA
:1006A0008B01C69718F085E193E046DE0230110514
:1006B00018F080E793E040DE01301105A1F4CC0F83
:1006C000DD1FCC0FDD1FC85FDD4FE881F98121817F
:1006D00081E090E00B8002C0880F991F0A94E2F736
:1006E000822B818314C0CC0FDD1FCC0FDD1FC85FB0
:1006F000DD4FE881F981218181E090E00B8002C02B
:10070000880F991F0A94E2F7809582238183DF91F5
:10071000CF911F910F910895F89461E087E090E0E8
:10072000D6DE60E070E087E090E0B5DF8FEC97E028
:100730000197F1F700C0000062E087E090E0C7DEBB
:100740008FE391E00197F1F700C0000087E090E0AF
:100750002FDF892B21F084E993E0EECD08958FE31C
:1007600091E00197F1F700C0000087E090E020DF02
:10077000892B19F48DED93E0DFCD0895CDDF36DFC1
:100780008BDE5CDD84EF91E0B6D0F8CFCF93DF93C2
:10079000C82FD42FE82FF0E0EE0FFF1FEE0FFF1F42
:1007A0009F012C55394FF901A281B3816C93CD0182
:1007B0000197FC0170830197FC0110825597F901A4
:1007C000B183A0838C2F1DDDDD2341F0982F909500
:1007D0008091D50E98239093D50E05C09091D50E9B
:1007E000982B9093D50E8091A206C81301C0CADC45
:1007F000DF91CF91089582E084BD9AEF97BD8093F9
:100800006E0083E085BD0895CF93DF93F8948EEF5B
:100810008093D50E1092C4061092A3061092A206E1
:1008200081E08093D60EC4EAD6E084EC97E0998309
:1008300088839B838A8384EC98E09D838C839F8349
:100840008E8384EC99E0998788879B878A8784ECDC
:100850009AE09D878C879F878E8784EC9BE0998B9D
:10086000888B9B8B8A8B84EC9CE09D8B8C8B9F8BE5
:100870008E8B84EC9DE0998F888F9B8F8A8F84EC80
:100880009EE09D8F8C8F9F8F8E8F8AEA8093C50606
:100890008093C5078093C5088093C5098093C50AD6
:1008A0008093C50B8093C50C8093C50DA4DFEDB775
:1008B000FEB7A881B98185818C93A881B981848193
:1008C00011978C93A881B981838112978C93A88109
:1008D000B981828113978C93888199812181FC0150
:1008E000349720838881998105979EBF8DBF789426
:1008F000DF91CF9108959C019FB7F894E091A206F3
:10090000F0E0EE0FFF1FEB53F14F31832083209176
:10091000A3068091D60E822B8093A3069FBF02CCA4
:1009200008951F920F920FB60F9211240BB60F92DB
:100930002F933F934F935F938F939F93AF93BF9367
:10094000EF93FF938091900690919106A09192066B
:10095000B09193060196A11DB11D809390069093CE
:100960009106A0939206B09393063091A306E5EC0E
:10097000FEE045ED5EE021E0808191810197819369
:100980009193892B19F4822F80953823220FE41735
:10099000F50791F73093A306FF91EF91BF91AF91C7
:1009A0009F918F915F914F913F912F910F900BBE2F
:1009B0000F900FBE0F901F901895AC01279A2F989B
:1009C0002FEF31EE74E0215030407040E1F700C06D
:1009D000000060E080E05523FCF0262F382F95B111
:1009E000905895B99FEFE0E772E09150E040704079
:1009F000E1F700C0000095B1905895B99FEFE9E686
:100A000078E19150E0407040E1F700C000002F5FB6
:100A10003F4F421753071CF79FEFE3E224EF91503B
:100A2000E0402040E1F700C00000D5CF97FB072E43
:100A300016F4009406D077FD08D027D007FC05D027
:100A40003EF4909581959F4F0895709561957F4FE5
:100A50000895052E97FB16F400940FD057FD05D08E
:100A600028D007FC02D046F408C050954095309538
:100A700021953F4F4F4F5F4F08959095809570950A
:100A800061957F4F8F4F9F4F0895AA1BBB1B51E16C
:100A900007C0AA1FBB1FA617B70710F0A61BB70BEE
:100AA000881F991F5A95A9F780959095BC01CD0193
:100AB0000895A1E21A2EAA1BBB1BFD010DC0AA1F9F
:100AC000BB1FEE1FFF1FA217B307E407F50720F0B7
:100AD000A21BB30BE40BF50B661F771F881F991F32
:100AE0001A9469F760957095809590959B01AC017B
:100AF000BD01CF0108954532510518F4423008F088
:100B000004C0FB011082CB010895BB274A3031F4A9
:100B1000992322F4BDE2909581959F4F01C0BB2798
:100B2000FB015527AA27880F991FAA1FA41710F0A9
:100B3000A41B83955051B9F7A05DAA3308F0A95DB5
:100B4000A193009779F7B111B1931192CB0100C035
:100B5000DC01FC01672F71917723E1F7329704C024
:100B60007C916D9370836291AE17BF07C8F30895AF
:040B7000F894FFCF27
:100B7400C000C800D00030012D0000002D0001018C
:100B84002D0002042D000305330004052D00050388
:100B94000101060301010704010108050101090619
:100BA40024000A0424000B0524000C0624000D076D
:100BB40004010E0104010F000101100101011100E3
:100BC4002A0012032A0013022A0014012A00150025
:100BD4002100160021001701210018022100190329
:100BE40021001A0421001B0521001C0621001D07F9
:100BF40027001E0727001F062700200527002104C1
:100C040027002203270023022700240127002500B0
:100C14002A00260733002702330028013300290065
:100C24000A012A070A012B060A012C050A012D04D0
:100C34000A012E030A012F020A0130010A013100C0
:100C4400240032032400330224003401240035003C
:100C5400C506C507C508C509C50AC50BC50CC50D1C
:100C640020544D503D20002E005248554D3D20004B
:100C74002C2000436865636B73756D204572726F39
:100C8400722E200D004572726F723A20496E7661A1
:100C94006C69642050494E206E756D62657220281F
:100CA40030202D203533292E200D004572726F72AD
:100CB4003A20496E76616C6964204D4F4445202882
:100CC400494E5055542C204F55545055542C2049BE
:100CD4004E5055545F50554C4C5550292E200D0004
:100CE4004572726F723A20496E76616C696420565F
:100CF400414C55452028484947482C204C4F5729FA
:100D04002E200D004E6F20636F6E6E656374696FE5
:100D14006E20726573706F6E736520647572696E90
:100D240067204C4F572064726976652E20506C659D
:100D340061736520636865636B2070696E20636FFF
:100D44006E6E656374696F6E732E200D004E6F2096
:100D5400636F6E6E656374696F6E20726573706F16
:100D64006E736520647572696E6720484947482030
:100D740064726976652E20506C65617365206368C2
:100D840065636B2070696E20636F6E6E6563746952
:100D94006F6E732E200D0053455409090909097219
:100DA400657475726E73207468652076616C756500
:100DB40073206F6620616C6C2074686520706172AA
:100DC400616D657465722073657474696E677320F0
:100DD40028544C4F572C2054484947482C20524102
:100DE40054452C204845582C20504552494F4429FD
:100DF4002E200D00534554204F4E09090909656EF4
:100E040061626C657320636F6E74726F6C6C657273
:100E140020746F2073656E642072656164696E6707
:100E24007320746F20686F73742E200D0053455423
:100E3400204F46460909090964697361626C657348
:100E440020636F6E74726F6C6C65722066726F6D66
:100E54002073656E64696E672072656164696E678C
:100E64007320746F20686F73742E200D00534554E3
:100E7400204845583D3C4F4E206F72204F46463E19
:100E84000973776974636865732072656164696E58
:100E94006720666F726D6174206265747765656E34
:100EA40020415343494920616E64204845582E200F
:100EB4000D0053455420544C4F573D3C76616C759E
:100EC400653E09096C6F772074656D706572617495
:100ED4007572652073657474696E672E2049662087
:100EE40074656D702069732062656C6F7720746817
:100EF40069732C204C45442F6865617465722073B6
:100F0400686F756C64206265207475726E65642008
:100F14006F6E2E200D005345542054484947483DD8
:100F24003C76616C75653E20096869676820746564
:100F34006D70657261747572652073657474696E21
:100F4400672E2049662074656D7020697320616284
:100F54006F766520746869732C204C45442F68654E
:100F6400617465722073686F756C642062652074A7
:100F740075726E6564206F66662E200D00534554AD
:100F840020504552494F443D3C76616C75653E099D
:100F940074696D6520696E207365636F6E64732078
:100FA4006265747765656E2072656164696E6773E6
:100FB4002073656E7420746F2074686520686F7385
:100FC400742E20416E20696E7465676572207661A7
:100FD4006C7565206E6F74206C6573732074686122
:100FE4006E20322C206E6F74206772656174657296
:100FF400207468616E2036353533352E200D00009F
:00000001FF
