S018000054656D7048756D69646974794D4567612E73726563CF
S113000071C000008EC000008CC000008AC00000D7
S113001088C0000086C0000084C0000082C00000C8
S113002080C000007EC000007CC000007AC00000D8
S113003078C0000076C0000074C0000072C00000E8
S113004070C000006EC000006CC000006AC00000F8
S113005068C0000049C3000064C0000062C0000022
S113006060C000005EC000005CC000005AC0000018
S113007058C0000056C0000054C0000052C0000028
S113008050C000004EC000004CC000004AC0000038
S113009048C0000046C0000044C0000042C0000048
S11300A040C000003EC000003CC000003AC0000058
S11300B038C0000036C0000034C0000032C0000068
S11300C030C000002EC000002CC000002AC0000078
S11300D028C0000026C0000024C0000022C0000088
S11300E020C0000011241FBECFEFD1E2DEBFCDBF80
S11300F000E00CBF15E0A0E0B2E0EAE3F9E000E0C4
S11301000BBF02C007900D92AA3FB107D9F72EE0AA
S1130110AAEFB5E001C01D92A134B207E1F7E5D022
S11301200AC46ECF2F923F924F925F926F927F924A
S11301308F929F92AF92BF92CF92DF92EF92FF92F3
S11301400F931F93CF93DF9320910C063091400EB1
S1130150F894EDB6FEB67894EEE0F6E0220FC8E02F
S1130160D2E0C20FD11D1991D881C12F18811A3A3A
S113017021F080910C06912D03C3220FE20FF11D93
S1130180E192F08220913F0E30910D0640912E06AF
S1130190232B242B30910C064091400E68E0889468
S11301A033953770441F411D742F422319F06A950B
S11301B0B9F7E8CF30930C067093400EEEE0F6E00A
S11301C0330F330FE30FF11D21913081F8942DBFCC
S11301D03EBF7894DF91CF911F910F91FF90EF90E4
S11301E0DF90CF90BF90AF909F908F907F906F9053
S11301F05F90852D4F90942D3F90632D2F90722DFD
S11302000895EEE0F2E0E80FF11D849108950102F3
S11302100408102040807894E2E0F6E01182108215
S11302201382128215821482178216821186108616
S11302300895CF92DF92EF92FF92CF93DF936A01FA
S11302407B01C82FD0E0CC0FDD1FC050DE4FE8810A
S1130250F98188E18183E881F981228360E472E491
S11302608FE090E0A7019601D7D2E881F981DA0105
S1130270C9010197A109B10995838483DF91CF91C5
S1130280FF90EF90DF90CF900895813081F038F0A7
S11302908230A9F08330D9F0E0ECF0E020C0E0EC4B
S11302A0F0E0808185FFFDCF6093C6000895E8ECFF
S11302B0F0E0808185FFFDCF6093CE000895E0EDEE
S11302C0F0E0808185FFFDCF6093D6000895E0E3E0
S11302D0F1E0808185FFFDCF609336010895808130
S11302E085FFFDCF6093C600089526E230E040E626
S11302F059E060E070E080E09CDF26E230E040E618
S113030059E060E070E081E094DF61D141E06AE8A7
S113031072E080E01ED162E480E0B7DFFCCF813080
S113032081F038F08230A9F08330D9F0E0ECF0E0CD
S113033020C0E0ECF0E080818823ECF78091C600D7
S11303400895E8ECF0E080818823ECF78091CE00FA
S11303500895E0EDF0E080818823ECF78091D600E9
S11303600895E0E3F1E080818823ECF78091360181
S1130370089580818823ECF78091C6000895CF9377
S1130380DF93FC016081662339F0EC01219680E063
S11303907CDF69916111FBCFDF91CF910895CF92FA
S11303A0DF92EF92FF920F931F93CF93DF93CDB71A
S11303B0DEB728970FB6F894DEBF0FBECDBF70E04E
S11303C09B01382BC9010F2EFAE0CF2ED12CF02D32
S11303D0B6010FD27B01CB01880F991F880F991F9B
S11303E0880F991F860F971F65E070E002D28B017A
S11303F0005E1F4F4AE050E0BE016F5F7F4FC801AF
S11304005DD288E192E0BBDFCE010196B8DFC7017F
S1130410B601EFD14AE050E0BE016F5F7F4F4ED28C
S11304208FE192E0ACDFCE010196A9DF80E692E095
S1130430A6DF109301060093000628960FB6F894E1
S1130440DEBF0FBECDBFDF91CF911F910F91FF9003
S1130450EF90DF90CF900895EF92FF920F931F9348
S1130460CF93DF93CDB7DEB728970FB6F894DEBFEE
S11304700FBECDBF70E09B01382BC9010AE010E02C
S1130480B801B7D17B0181E292E079DF4AE050E024
S1130490BE016F5F7F4FC70111D2CE0101966FDF9E
S11304A0C701B801A6D14AE050E0BE016F5F7F4F9B
S11304B005D28FE192E063DFCE01019660DF88E22E
S11304C092E05DDF28960FB6F894DEBF0FBECDBF75
S11304D0DF91CF911F910F91FF90EF900895E2E08B
S11304E0F6E080816281262F280F9481290F96815E
S11304F0290F30E0408551854217530739F4ACDFAA
S1130500E2E0F6E0668184814ACF08958BE292E0CE
S113051036CF08950CE016E00F2EF2E0EF2EF6E051
S1130520FF2EF02D81E0FBDE8A3AE1F7E70181E05E
S1130530F6DE90E089939993C017D107C1F781E063
S1130540EEDE893979F7CBDF66DE84EF91E0B6D051
S1130550E9CFCF93DF93C82FD42FE82FF0E0EE0F2D
S1130560FF1FEE0FFF1F9F01225F394FF901A28188
S1130570B3816C93CD010197FC0170830197FC0159
S113058010825597F901B183A0838C2F3ADEDD23C5
S113059041F0982F909580913F0E982390933F0EB1
S11305A005C090913F0E982B90933F0E80910C06BE
S11305B0C81301C0E7DDDF91CF91089582E084BDC7
S11305C09AEF97BD80936E0083E085BD0895CF9325
S11305D0DF93F8948EEF80933F0E10922E061092C4
S11305E00D0610920C0681E08093400ECEE0D6E01A
S11305F08EE297E0998388839B838A838EE298E0D6
S11306009D838C839F838E838EE299E0998788876C
S11306109B878A878EE29AE09D878C879F878E8747
S11306208EE29BE0998B888B9B8B8A8B8EE29CE07D
S11306309D8B8C8B9F8B8E8B8EE29DE0998F888F08
S11306409B8F8A8F8EE29EE09D8F8C8F9F8F8E8FE3
S11306508AEA80932F0680932F0780932F08809334
S11306602F0980932F0A80932F0B80932F0C809354
S11306702F0DA4DFEDB7FEB7A881B98185818C93D6
S1130680A881B981848111978C93A881B9818381D0
S113069012978C93A881B981828113978C93888156
S11306A099812181FC013497208388819981059760
S11306B09EBF8DBF7894DF91CF9108959C019FB721
S11306C0F894E0910C06F0E0EE0FFF1FE15DF14FAE
S11306D03183208320910D068091400E822B8093DC
S11306E00D069FBF1FCD08951F920F920FB60F9254
S11306F011240BB60F922F933F934F935F938F93D5
S11307009F93AF93BF93EF93FF938091FA059091DA
S1130710FB05A091FC05B091FD050196A11DB11D3D
S11307208093FA059093FB05A093FC05B093FD0517
S113073030910D06EFE2FEE04FE35EE021E08081C0
S11307409181019781939193892B19F4822F80953C
S11307503823220FE417F50791F730930D06FF9124
S1130760EF91BF91AF919F918F915F914F913F9185
S11307702F910F900BBE0F900FBE0F901F901895E6
S1130780AC01279A2F982FEF31EE74E021503040BE
S11307907040E1F700C0000060E080E05523FCF009
S11307A0262F382F95B1905895B99FEFE0E772E066
S11307B09150E0407040E1F700C0000095B19058BE
S11307C095B99FEFE9E678E19150E0407040E1F798
S11307D000C000002F5F3F4F421753071CF79FEFE5
S11307E0E3E224EF9150E0402040E1F700C0000034
S11307F0D5CF97FB072E16F4009406D077FD08D0CA
S113080027D007FC05D03EF4909581959F4F08951D
S1130810709561957F4F0895052E97FB16F400940B
S11308200FD057FD05D028D007FC02D046F408C0ED
S113083050954095309521953F4F4F4F5F4F089508
S113084090958095709561957F4F8F4F9F4F089538
S1130850AA1BBB1B51E107C0AA1FBB1FA617B707E2
S113086010F0A61BB70B881F991F5A95A9F78095FE
S11308709095BC01CD010895A1E21A2EAA1BBB1BC1
S1130880FD010DC0AA1FBB1FEE1FFF1FA217B30758
S1130890E407F50720F0A21BB30BE40BF50B661F6E
S11308A0771F881F991F1A9469F760957095809532
S11308B090959B01AC01BD01CF01089545325105CE
S11308C018F4423008F004C0FB011082CB010895F3
S11308D0BB274A3031F4992322F4BDE290958195E7
S11308E09F4F01C0BB27FB015527AA27880F991FDB
S11308F0AA1FA41710F0A41B83955051B9F7A05D4B
S1130900AA3308F0A95DA193009779F7B111B193C7
S11309101192CB0100C0DC01FC01672F7191772398
S1130920E1F7329704C07C916D9370836291AE17A6
S10D0930BF07C8F30895F894FFCF41
S113093AC000C800D00030012F062F072F082F0946
S113094A2F0A2F0B2F0C2F0D20544D503D20002E13
S113095A005248554D3D20002C2000436865636BC6
S113096A73756D204572726F722E200D0045727276
S113097A6F723A20496E76616C69642050494E2040
S113098A6E756D626572202830202D203533292E2C
S113099A200D004572726F723A20496E76616C6955
S11309AA64204D4F44452028494E5055542C204F1D
S11309BA55545055542C20494E5055545F50554C5B
S11309CA4C5550292E200D004572726F723A2049F7
S11309DA6E76616C69642056414C55452028484915
S11309EA47482C204C4F57292E200D004E6F206368
S11309FA6F6E6E656374696F6E20726573706F6E65
S1130A0A736520647572696E67204C4F572064724F
S1130A1A6976652E20506C65617365206368656329
S1130A2A6B2070696E20636F6E6E656374696F6E96
S1130A3A732E200D004E6F20636F6E6E65637469AA
S1130A4A6F6E20726573706F6E7365206475726958
S1130A5A6E6720484947482064726976652E20509B
S1130A6A6C6561736520636865636B2070696E20C9
S1130A7A636F6E6E656374696F6E732E200D005317
S1130A8A4554090909090972657475726E732074EB
S1130A9A68652076616C756573206F6620616C6C7D
S1130AAA2074686520706172616D65746572207363
S1130ABA657474696E67732028544C4F572C2054FC
S1130ACA484947482C20524154452C204845582C23
S1130ADA20504552494F44292E200D005345542095
S1130AEA4F4E09090909656E61626C657320636F6B
S1130AFA6E74726F6C6C657220746F2073656E64A9
S1130B0A2072656164696E677320746F20686F73FD
S1130B1A742E200D00534554204F464609090909ED
S1130B2A64697361626C657320636F6E74726F6C4F
S1130B3A6C65722066726F6D2073656E64696E6788
S1130B4A2072656164696E677320746F20686F73BD
S1130B5A742E200D00534554204845583D3C4F4EB1
S1130B6A206F72204F46463E09737769746368653D
S1130B7A732072656164696E6720666F726D617451
S1130B8A206265747765656E204153434949206143
S1130B9A6E64204845582E200D0053455420544C69
S1130BAA4F573D3C76616C75653E09096C6F772039
S1130BBA74656D7065726174757265207365747499
S1130BCA696E672E2049662074656D7020697320EA
S1130BDA62656C6F7720746869732C204C45442FC6
S1130BEA6865617465722073686F756C64206265E8
S1130BFA207475726E6564206F6E2E200D00534545
S1130C0A542054484947483D3C76616C75653E20FA
S1130C1A09686967682074656D70657261747572B4
S1130C2A652073657474696E672E2049662074653D
S1130C3A6D702069732061626F76652074686973C8
S1130C4A2C204C45442F6865617465722073686F63
S1130C5A756C64206265207475726E6564206F66B3
S1130C6A662E200D0053455420504552494F443DA9
S1130C7A3C76616C75653E0974696D6520696E2000
S1130C8A7365636F6E6473206265747765656E203D
S1130C9A72656164696E67732073656E7420746F1C
S1130CAA2074686520686F73742E20416E20696E03
S1130CBA74656765722076616C7565206E6F742041
S1130CCA6C657373207468616E20322C206E6F74A5
S1130CDA2067726561746572207468616E203635A6
S1130CEA3533352E200D0072740A0048454C5000E5
S1130CFA534554204F4E00534554204F4646005303
S1130D0A4554204845580053455420544C4F5700E5
S1130D1A53455420544849474800534554205045A4
S10D0D2A52494F44005345540000A1
S9030000FC
