S010000050726F626C656D322E7372656311
S11300009DC00000BAC00000B8C00000B6C0000027
S1130010B4C00000B2C00000B0C00000AEC0000018
S1130020ACC00000AAC00000A8C00000A6C0000028
S1130030A4C00000A2C00000A0C000009EC0000038
S11300409CC000009AC0000098C0000096C0000048
S113005094C0000092C0000090C000008EC0000058
S11300608CC0000053C6000095C4000086C0000088
S113007084C0000082C0000080C000007EC0000078
S11300807CC000007AC0000078C0000076C0000088
S113009068C60000CBC4000070C000006EC0000041
S11300A06CC000006AC0000068C0000066C00000A8
S11300B064C0000062C0000060C000005EC00000B8
S11300C05CC000005AC0000058C0000075C60000A3
S11300D0F9C4000052C000009AC600003FC50000E9
S11300E04CC00000E501E801EB01ED01ED01ED017B
S11300F0ED01ED01ED01ED01ED01ED01ED01ED018C
S1130100ED01ED01ED01ED01ED01ED01ED01ED017B
S1130110ED01ED01ED01ED01ED01ED01ED01ED016B
S1130120ED01ED01ED01ED01ED01ED01ED01ED015B
S1130130ED01ED01E201DF01DC01D90111241FBE53
S1130140CFEFD1E2DEBFCDBF00E00CBF12E0A0E0F4
S1130150B2E0E0E1F1E100E00BBF02C007900D92D4
S1130160AE33B107D9F723E0AEE3B2E001C01D928C
S1130170A43EB207E1F79DD1C9C742CF019719F058
S113018000C003D0FBCF00C000000895203880E7F2
S113019038074105510509F4A8C05CF5203C82E10B
S11301A038074105510509F46CC074F4203B84E020
S11301B038074105510509F44AC020363940410544
S11301C0510509F451C0EBC0203488E338074105D8
S11301D0510509F470C021158BE438074105510518
S11301E009F476C0203835424105510509F0D7C0DD
S11301F055C0211582EC380781E04807510509F400
S11302009BC074F4211586E938074105510509F4AA
S113021079C02115314E4105510509F480C0BFC094
S1130220203281EA380787E04807510509F49EC067
S1130230203482E438078FE04807510509F4A3C04D
S11302402039304D4340510509F0A9C082C082E4F1
S113025093E0A0E0B0E080933E0290933F02A0932D
S11302604002B09341029BC081EA91E0A0E0B0E07B
S113027080933E0290933F02A0934002B0934102C8
S11302808EC081ED90E0A0E0B0E080933E029093B8
S11302903F02A0934002B093410281C088E690E0FF
S11302A0A0E0B0E080933E0290933F02A09340020E
S11302B0B093410274C086E490E0A0E0B0E0809383
S11302C03E0290933F02A0934002B093410267C064
S11302D084E390E0A0E0B0E080933E0290933F027C
S11302E0A0934002B09341025AC083E290E0A0E0A0
S11302F0B0E080933E0290933F02A0934002B093FB
S113030041024DC08AE190E0A0E0B0E080933E025B
S113031090933F02A0934002B093410240C081E118
S113032090E0A0E0B0E080933E0290933F02A0935F
S11303304002B093410233C089E090E0A0E0B0E015
S113034080933E0290933F02A0934002B0934102F7
S113035026C084E090E0A0E0B0E080933E02909359
S11303603F02A0934002B093410219C082E090E0A2
S1130370A0E0B0E080933E0290933F02A09340023D
S1130380B09341020CC081E090E0A0E0B0E0809323
S11303903E0290933F02A0934002B0934102FB01BE
S11303A03A97EC32F105C8F48827EE58FF4F8F4F87
S11303B0A5C660E070E011C061E070E00EC062E0CC
S11303C070E00BC063E070E008C064E070E005C05A
S11303D065E070E002C066E070E081E090E002C099
S11303E0880F991F6A95E2F794B1982B94B980937A
S11303F04302982F90959093420295B1892B85B929
S11304000895CF92DF92EF92FF920F931F93CF93B1
S1130410DF93E82E85B190914202982395B980919B
S11304203E0290913F02AADE08E010E0C1E0D0E075
S1130430F12C0F2EFEE3CF2EF2E0DF2EF02DCE01B5
S11304408E219F21892B31F495B180914202892319
S113045085B905C085B190914302982B95B9F601F1
S1130460808191818BDECC0FDD1F0150110939F79A
S113047095B180914302892B85B980913E02909178
S11304803F027CDEDF91CF911F910F91FF90EF909F
S1130490DF90CF900895CF93DF93EC018881882378
S11304A029F02196AEDF89918111FCCFDF91CF91A4
S11304B0089506E010E020E036E940E050E06CE00A
S11304C070E083E190E062DE46E050E060E076E9CF
S11304D080E090E0CDD580E392E0DDDFE7D52FE347
S11304E08DE093E0215080409040E1F700C000008F
S11304F0F2CFFC01EE0FFF1FE85DFD4FA081B1813B
S113050011961C923FEFA0E7B2E03150A040B040FA
S1130510E1F700C000000190F081E02D3681403801
S113052030E753076105710509F4A3C024F5403889
S1130530B5E25B076105710509F46BC074F44036DC
S1130540A9E05A076105710509F443C0403C5241D2
S11305506105710509F44DC0FBC0403438E353070D
S11305606105710509F465C041155B4461057105B8
S113057009F46FC0EDC04115B2EC5B07B1E06B0745
S1130580710509F4A6C074F44115A6E95A0761057A
S1130590710509F47EC04115514E6105710509F4D8
S11305A088C0D6C0403231EA530737E0630771058B
S11305B009F4AFC04034A2E45A07AFE06A077105FA
S11305C009F4B7C04039504D6340710509F0C0C00B
S11305D090C040E453E055834483FC01EE0FFF1FB9
S11305E0E85DFD4F0190F081E02D30813260308371
S11305F0AFC040EA51E055834483FC01EE0FFF1F76
S1130600E85DFD4F0190F081E02D30813260308350
S11306109FC047E650E055834483FC01EE0FFF1F63
S1130620E85DFD4F0190F081E02D30813D7F308306
S11306308FC04AE850E055834483FC01EE0FFF1F4E
S1130640E85DFD4F0190F081E02D30813260308310
S11306507FC043E350E055834483FC01EE0FFF1F4A
S1130660E85DFD4F0190F081E02D30813D7F3083C6
S11306706FC044E450E055834483FC01EE0FFF1F38
S1130680E85DFD4F0190F081E02D308132603083D0
S11306905FC049E150E055834483FC01EE0FFF1F26
S11306A0E85DFD4F0190F081E02D30813D7F308386
S11306B04FC042E250E055834483FC01EE0FFF1F1C
S11306C0E85DFD4F0190F081E02D30813260308390
S11306D03FC040E150E055834483FC01EE0FFF1F0F
S11306E0E85DFD4F0190F081E02D30813260308370
S11306F02FC047E050E055834483FC01EE0FFF1FF9
S1130700E85DFD4F0190F081E02D3081326030834F
S11307101FC043E050E055834483FC01EE0FFF1FEC
S1130720E85DFD4F0190F081E02D3081326030832F
S11307300FC041E050E055834483FC01EE0FFF1FDE
S1130740E85DFD4F0190F081E02D3081326030830F
S1130750880F991FFC01E85DFD4FA081B1811296BD
S11307602C930190F081E02D818188698183089523
S113077028E0829FC0011124FC01EC5BFD4F17822D
S113078016821082118283818E7F82608383158218
S1130790148212820895EF92FF920F931F93CF93C6
S11307A0DF93EC017B0180914A0290914B02892BEB
S11307B0D9F18091520290915302892B79F0809162
S11307C05A0290915B02892B61F0809162029091B0
S11307D06302892B19F503E010E028C001E010E062
S11307E025C002E010E022C0C130D10531F0CE01B5
S11307F001978C239D23892B99F4802FB9DFF8016D
S1130800EE0FFF1FEE0FFF1FEE0FFF1FEC5BFD4F00
S1130810F782E682C150C283802F0CC08FEF0AC0DA
S11308208FEF08C08FEF06C000E010E0E114F10480
S1130830D9F6F8CFDF91CF911F910F91FF90EF90F0
S113084008958F929F92AF92BF92CF92DF92EF92D0
S1130850FF920F931F93CF93DF938C014A015B01A7
S11308606901EC01CC0FDD1FBC01660F771F660F19
S1130870771F660F771FC60FD71FC050DE4F6A81E0
S11308807B818C819D8187DFF82E6E817F818885B5
S1130890998581DFE82EF88289839601B501A40148
S11308A0C80127DEFF2034F0EE203CF0789480E08D
S11308B090E005C08FEF9FEF02C08FEF9FEFDF91B5
S11308C0CF911F910F91FF90EF90DF90CF90BF9049
S11308D0AF909F908F900895CF93DF93E82FF0E02F
S11308E0DF01AA0FBB1FAA0FBB1FAA0FBB1FAC5B64
S11308F0BD4F13968C9181FD49C09FB7F894DF01D9
S1130900AA0FBB1FAA0FBB1FAA0FBB1FAC5BBD4F17
S113091011968C9111971696CD91DC911797C80F6B
S1130920D11D2881EB0128838F5F12962C91129799
S1130930822311968C93119714962D913C911597BF
S11309402150310915963C932E9314972C918213C0
S11309500FC0DF01AA0FBB1FAA0FBB1FAA0FBB1F2B
S1130960AC5BBD4F13968C911397826013968C9356
S1130970EE0FFF1FEE0FFF1FEE0FFF1FEC5BFD4F8F
S113098083818E7F83839FBF81E001C080E0DF91FC
S1130990CF9108951F920F920FB60F9211240BB6A8
S11309A00F922F933F934F935F936F937F938F9304
S11309B09F93AF93BF93EF93FF93CF93DF931F92D4
S11309C0CDB7DEB780910102E82FF0E0EE0FFF1FF4
S11309D0EE0FFF1FEE0FFF1FEC5BFD4F938191FFA6
S11309E008C0E0912802F091290281818F7D8183E2
S11309F007C0BE016F5F7F4F6FDF89818093C600A0
S1130A000F90DF91CF91FF91EF91BF91AF919F91A3
S1130A108F917F916F915F914F913F912F910F90A3
S1130A200BBE0F900FBE0F901F9018951F920F9240
S1130A300FB60F9211240BB60F922F933F934F933F
S1130A405F936F937F938F939F93AF93BF93EF9332
S1130A50FF93CF93DF931F92CDB7DEB780910B0244
S1130A60E82FF0E0EE0FFF1FEE0FFF1FEE0FFF1F4A
S1130A70EC5BFD4F938191FF08C0E0912A02F09155
S1130A802B0281818F7D818307C0BE016F5F7F4F01
S1130A9023DF89818093CE000F90DF91CF91FF9166
S1130AA0EF91BF91AF919F918F917F916F915F91E2
S1130AB04F913F912F910F900BBE0F900FBE0F904F
S1130AC01F9018951F920F920FB60F9211240BB618
S1130AD00F922F933F934F935F936F937F938F93D3
S1130AE09F93AF93BF93EF93FF93CF93DF931F92A3
S1130AF0CDB7DEB780911502E82FF0E0EE0FFF1FAF
S1130B00EE0FFF1FEE0FFF1FEC5BFD4F938191FF74
S1130B1008C0E0912C02F0912D0281818F7D8183A8
S1130B2007C0BE016F5F7F4FD7DE89818093D600F7
S1130B300F90DF91CF91FF91EF91BF91AF919F9172
S1130B408F917F916F915F914F913F912F910F9072
S1130B500BBE0F900FBE0F901F9018951F920F920F
S1130B600FB60F9211240BB60F922F933F934F930E
S1130B705F936F937F938F939F93AF93BF93EF9301
S1130B80FF93CF93DF931F92CDB7DEB780911F02FF
S1130B90E82FF0E0EE0FFF1FEE0FFF1FEE0FFF1F19
S1130BA0EC5BFD4F938191FF08C0E0912E02F09120
S1130BB02F0281818F7D818307C0BE016F5F7F4FCC
S1130BC08BDE8981809336010F90DF91CF91FF9165
S1130BD0EF91BF91AF919F918F917F916F915F91B1
S1130BE04F913F912F910F900BBE0F900FBE0F901E
S1130BF01F901895CF93DF931F921F92CDB7DEB746
S1130C00FC01EE0FFF1F880F991F880F991F880F93
S1130C10991FE80FF91FE050FE4F8081E82FF0E0A4
S1130C20EE0FFF1FEE0FFF1FEE0FFF1FEC5BFD4FDC
S1130C3024813581121613064CF41A821982BE01DE
S1130C406F5F7F4F49DE89819A8102C08FEF9FEFEA
S1130C500F900F90DF91CF910895CF93DF93E82FFA
S1130C60F0E0DF01AA0FBB1FAA0FBB1FAA0FBB1F17
S1130C70AC5BBD4F13968C9180FD44C09FB7F89434
S1130C80DF01AA0FBB1FAA0FBB1FAA0FBB1FAC5BC0
S1130C90BD4F8C911696CD91DC911797C80FD11D3D
S1130CA068838F5F12962C91129782238C931496EB
S1130CB02D913C9115972F5F3F4F15963C932E93A2
S1130CC0149711962C9182130FC0DF01AA0FBB1F3A
S1130CD0AA0FBB1FAA0FBB1FAC5BBD4F13968C9111
S1130CE01397816013968C93EE0FFF1FEE0FFF1F77
S1130CF0EE0FFF1FEC5BFD4F83818D7F83839FBFCE
S1130D0081E001C080E0DF91CF9108951F920F929E
S1130D100FB60F9211240BB60F922F933F934F935C
S1130D205F936F937F938F939F93AF93BF93EF934F
S1130D30FF936091C600809100028FDFFF91EF91D5
S1130D40BF91AF919F918F917F916F915F914F91DF
S1130D503F912F910F900BBE0F900FBE0F901F90DD
S1130D6018951F920F920FB60F9211240BB60F9283
S1130D702F933F934F935F936F937F938F939F939F
S1130D80AF93BF93EF93FF936091CE0080910A02DB
S1130D9064DFFF91EF91BF91AF919F918F917F910C
S1130DA06F915F914F913F912F910F900BBE0F90D8
S1130DB00FBE0F901F9018951F920F920FB60F92AF
S1130DC011240BB60F922F933F934F935F936F931E
S1130DD07F938F939F93AF93BF93EF93FF93609110
S1130DE0D6008091140239DFFF91EF91BF91AF914A
S1130DF09F918F917F916F915F914F913F912F912F
S1130E000F900BBE0F900FBE0F901F9018951F925E
S1130E100F920FB60F9211240BB60F922F933F939C
S1130E204F935F936F937F938F939F93AF93BF93EE
S1130E30EF93FF936091360180911E020EDFFF91C4
S1130E40EF91BF91AF919F918F917F916F915F913E
S1130E504F913F912F910F900BBE0F900FBE0F90AB
S1130E601F901895E0ECF0E0908195FFFDCF809302
S1130E70C60008951092C1002FEF39EF50E02150C1
S1130E8030405040E1F700C000002091C6006038B7
S1130E9020E772078105910509F48FC024F56038B5
S1130EA055E275078105910509F463C074F4603651
S1130EB039E073078105910509F443C0603C724130
S1130EC08105910509F449C0CBC0603428E3720759
S1130ED08105910509F459C061157B44810591058B
S1130EE009F45FC0BDC0611552EC750751E0850778
S1130EF0910509F486C074F4611536E97307810518
S1130F00910509F466C06115714E8105910509F4D6
S1130F106CC0A6C0603221EA720727E082079105FF
S1130F2009F487C0603432E473073FE08307910516
S1130F3009F48BC06039704D8340910509F090C06D
S1130F406CC080E493E09093C5008093C400E0EC0F
S1130F50F0E080818260808383C080EA91E0909396
S1130F60C5008093C400E0ECF0E08081826080835F
S1130F7077C087E690E09093C5008093C400E0ECCE
S1130F80F0E080818D7F80836BC08AE890E090934D
S1130F90C5008093C400E0ECF0E08081826080832F
S1130FA05FC083E390E09093C5008093C400E0ECBD
S1130FB0F0E080818D7F808353C084E490E090933F
S1130FC0C5008093C400E0ECF0E0808182608083FF
S1130FD047C089E190E09093C5008093C400E0ECA1
S1130FE0F0E080818D7F80833BC082E290E090932B
S1130FF0C5008093C400E0ECF0E0808182608083CF
S11310002FC080E190E09093C5008093C400E0EC91
S1131010F0E080818260808323C087E090E0909339
S1131020C5008093C400E0ECF0E08081826080839E
S113103017C083E090E09093C5008093C400E0EC77
S1131040F0E08081826080830BC081E090E0909327
S1131050C5008093C400E0ECF0E08081826080836E
S11310604093C200E1ECF0E08081886180830895C0
S1131070CF92DF92EF92FF92CF93DF936B017C01CB
S1131080EA0146E050E060E072EC81E090E0F2DEDC
S11310909E01B701A60181E090E0D3DB279ADF919E
S11310A0CF91FF90EF90DF90CF900895E0910A02E6
S11310B0F0E0EE0FFF1FEE0FFF1FEE0FFF1FEC5BC4
S11310C0FD4F84819581892B89F485B1805885B938
S11310D02FEF80E792E0215080409040E1F700C07C
S11310E00000F3CF95B1905895B9BCDE81E090E053
S11310F081DD8F3F2FEF9207A9F70895EE0FFF1FB1
S1131100881F8BBF0790F691E02D1994F894FFCFB8
S11311100000A403400064034000000024034000D6
S1131120E40240000000C4022000A40220000000E9
S11311308402200064022000C000C800D0003001F6
S111114048656C6C6F2C576F726C64210A004A
S9030000FC
