S00F00005053657269616C2E7372656365
S113000071C000008EC000008CC000008AC00000D7
S113001088C0000086C0000084C0000082C00000C8
S113002080C000007EC000007CC000007AC00000D8
S113003078C0000076C0000074C0000072C00000E8
S113004070C000006EC000006CC000006AC00000F8
S113005068C0000066C0000064C0000062C0000008
S113006060C000005EC000005CC000005AC0000018
S113007058C0000056C0000054C0000052C0000028
S113008050C000004EC000004CC000004AC0000038
S113009048C0000046C0000044C0000042C0000048
S11300A040C000003EC000003CC000003AC0000058
S11300B038C0000036C0000034C0000032C0000068
S11300C030C000002EC000002CC000002AC0000078
S11300D028C0000026C0000024C0000022C0000088
S11300E020C0000011241FBECFEFD1E2DEBFCDBF80
S11300F000E00CBF12E0A0E0B2E0ECE5F2E000E0CA
S11301000BBF02C007900D92A230B107D9F722E0CD
S1130110A2E0B2E001C01D92A430B207E1F702D020
S11301209BC06ECF46E050E068E572E080E090E06E
S11301304FD061E380E03BD0C2E36C2F80E037D046
S1130140CF5FCA33D1F7C1E3F8CFCF92DF92EF92FA
S1130150FF92CF93DF936A017B01E82FF0E0EE0F6B
S1130160FF1FE050FE4FA081B18188E111968C936E
S1130170C081D1812A8360E472E48FE090E0A7011A
S113018096012CD0BA01A9014150510961097109A4
S1130190BB2777FDBA95A72F962F852F8D834C8388
S11301A0DF91CF91FF90EF90DF90CF90089520E200
S11301B030E03093030220930202E82FF0E0EE0FC8
S11301C0FF1FE050FE4F0190F081E02D66830895FB
S11301D09A01AB01BC0180E0B8CF0895052E97FBCE
S11301E016F400940FD057FD05D014D007FC02D0AC
S11301F046F408C050954095309521953F4F4F4F98
S11302005F4F089590958095709561957F4F8F4FBE
S11302109F4F0895A1E21A2EAA1BBB1BFD010DC01E
S1130220AA1FBB1FEE1FFF1FA217B307E407F507A2
S113023020F0A21BB30BE40BF50B661F771F881F7E
S1130240991F1A9469F760957095809590959B0114
S10F0250AC01BD01CF010895F894FFCF6C
S105025CC000DC
S9030000FC
