S00B00004143582E737265633D
S113000071C0000081C000007FC000007DC00000FE
S11300107BC0000079C0000077C0000075C00000FC
S113002073C0000071C000006FC000006DC000000C
S11300306BC0000069C0000067C0000065C000001C
S113004063C0000061C000005FC000005DC000002C
S11300505BC00000F3C0000057C0000055C00000A2
S113006053C0000051C000004FC000004DC000004C
S11300704BC0000049C0000047C0000045C000005C
S113008043C0000041C000003FC000003DC000006C
S11300903BC0000039C0000037C0000035C000007C
S11300A033C0000031C000002FC000002DC000008C
S11300B02BC0000029C0000027C0000025C000009C
S11300C023C0000021C000001FC000001DC00000AC
S11300D01BC0000019C0000017C0000015C00000BC
S11300E013C0000011241FBECFEFD1E2DEBFCDBF8D
S11300F000E00CBF22E0A0E0B2E001C01D92A733F3
S1130100B207E1F799D0A4C07BCFCF93DF93F894E3
S113011082E084BD9AEF97BD80936E0083E085BD35
S113012010920102109200028EEF8093130210923B
S1130130350210923402E3E0F2E01182108213825D
S113014012821582148217821682118610861386F3
S1130150128615861486178616861092020281E08E
S113016080933602E4E1F2E08FEF90E291838083A2
S1130170938382838FEF9FE1958384839783868320
S11301808FEF9EE191878087938782878FEF9DE130
S113019095878487978786878FEF9CE1918B808BE7
S11301A0938B828B8FEF9BE1958B848B978B868BC4
S11301B08FEF9AE1918F808F938F828F8FEF99E1E8
S11301C0958F848F978F868F8AEA809300208093FF
S11301D0001F8093001E8093001D8093001C809359
S11301E0001B8093001A809300198DB79EB7811568
S11301F09242B0F4A0E0B1E280E092E2C1E0D2E247
S1130200FC0122912E93BE01681B790B9C012250A4
S113021031094DB75EB7CF012417350788F702C0FF
S113022060E070E080E091E2861B970B9EBF8DBF7B
S11302307894DF91CF91089568DFFFCF1F920F92DA
S11302400FB60F9211240F900FBE0F901F901895A8
S1070250F894FFCF4C
S9030000FC
