S00B00004143582E737265633D
S113000071C0000081C000007FC000007DC00000FE
S11300107BC0000079C0000077C0000075C00000FC
S113002073C0000071C000006FC000006DC000000C
S11300306BC0000069C0000067C0000065C000001C
S113004063C0000061C000005FC000005DC000002C
S11300505BC000000EC3000057C0000055C0000084
S113006053C0000051C000004FC000004DC000004C
S11300704BC0000049C0000047C0000045C000005C
S113008043C0000041C000003FC000003DC000006C
S11300903BC0000039C0000037C0000035C000007C
S11300A033C0000031C000002FC000002DC000008C
S11300B02BC0000029C0000027C0000025C000009C
S11300C023C0000021C000001FC000001DC00000AC
S11300D01BC0000019C0000017C0000015C00000BC
S11300E013C0000011241FBECFEFD1E2DEBFCDBF8D
S11300F000E00CBF22E0A0E0B2E001C01D92A733F3
S1130100B207E1F780D025C37BCF2F923F924F9265
S11301105F926F927F928F929F92AF92BF92CF9293
S1130120DF92EF92FF920F931F93CF93DF9320916F
S1130130020230913602E4E0F2E0F894ADE3BEE36B
S11301407894209103023091350240913402232B9C
S1130150242B2095809102022FD050910202682F07
S11301605395583019F4552761E001C0660F6217A2
S1130170B9F7F8945093020260933602A4E0B2E017
S1130180550F550FA50FB11DB0933D00A0933E0030
S11301907894DF91CF911F910F91FF90EF90DF90B2
S11301A0CF90BF90AF909F908F907F906F905F9013
S11301B04F903F902F900895782F81E0703021F078
S11301C0880F7A9509F0E1F70895CF93DF93CDB7BF
S11301D0DEB7F89481E0DF91CF910895CF93DF9358
S11301E01F921F92CDB7DEB79A8389838FE590E083
S11301F029813A81F9012081FC0120830F900F901D
S1130200DF91CF910895CF93DF93CDB7DEB761D05F
S113021041E06EE471E082E0B1D141E063E371E07A
S113022081E0ACD141E068E171E080E0A7D1FFCF8B
S1130230CF93DF93CDB7DEB787E290E027E230E0DB
S1130240F90120812160FC01208388E290E028E20A
S113025030E0F901308121E02327FC0120838AEF7B
S113026090E059D1F2CFCF93DF93CDB7DEB787E2D9
S113027090E027E230E0F90120812260FC01208334
S113028088E290E028E230E0F901308122E023277F
S1130290FC01208384E893E03ED1F2CFCF93DF9337
S11302A0CDB7DEB787E290E027E230E0F9012081A4
S11302B02460FC01208388E290E028E230E0F90128
S11302C0308124E02327FC01208381E490E023D1C2
S11302D0F2CFCF93DF9300D000D0CDB7DEB7F89440
S11302E084E490E022E0FC01208387E490E02AEF9C
S11302F0FC0120838EE690E022E0FC01208385E46B
S113030090E023E0FC01208310920102109200028D
S11303108EEF8093030210923502109234021092F1
S113032025021092240210922702109226021092A3
S113033029021092280210922B0210922A02109283
S11303402D0210922C0210922F0210922E02109263
S11303503102109230021092330210923202109243
S1130360020281E0809336028FE791E290930502C6
S1130370809304028FE791E2909307028093060230
S11303808FEF90E290930902809308028FEF90E23E
S113039090930B0280930A028FE790E290930D02F0
S11303A080930C028FE790E290930F0280930E02E9
S11303B08FEF9FE190931102809310028FEF9FE1E2
S11303C090931302809312028FE79FE1909315029A
S11303D0809314028FE79FE1909317028093160293
S11303E08FEF9EE190931902809318028FEF9EE1A4
S11303F090931B0280931A028FE79EE190931D0253
S113040080931C028FE79EE190931F0280931E024B
S11304108FEF9DE190932102809320028FEF9DE165
S1130420909323028093220280E091E22AEAFC0165
S1130430208380E890E22AEAFC01208380E090E2B5
S11304402AEAFC01208380E89FE12AEAFC01208358
S113045080E09FE12AEAFC01208380E89EE12AEA09
S1130460FC01208380E09EE12AEAFC01208380E8ED
S11304709DE12AEAFC0120831A8219828FE791E226
S11304809C838B838FEF91E29E838D831BC0898134
S11304909A819195819591092B813C81820F931FBB
S11304A029813A813195219531094D815E81240F4D
S11304B0351FF9012081FC01208389819A810196ED
S11304C09A8389832FEF31E289819A81A901481B9C
S11304D0590BCA019C018DE590E0FC01808191815A
S11304E028173907A0F68DE590E040E851E229810C
S11304F03A81BA01621B730B9B01FC013183208397
S11305007894000026960FB6F894DEBF0FBECDBFD8
S1130510DF91CF910895CF93DF9300D01F92CDB791
S1130520DEB79C838B838FE590E0FC0180818A8316
S11305304CDE898315C080910202882F90E0880FD9
S1130540991F8C5D9D4F2B813C81FC01318320835D
S11305509091030280913602892B809303021982C1
S11305608981882341F7CE01029638DECEDD0F90D3
S11305700F900F900F90DF91CF910895CF93DF9359
S1130580CDB7DEB727970FB6F894DEBF0FBECDBF49
S11305908C837E836D834F838D819E819A8389832F
S11305A08C81882F90E0880F991F880F991F8C5F8A
S11305B09D4FFC01808191812981FC0120838C81E4
S11305C0882F90E0880F991F880F991F8C5F9D4F8B
S11305D0FC018081918101972A81FC0120838C8117
S11305E0882F90E0880F991F880F991F8C5F9D4F6B
S11305F0FC018081918102972B81FC0120838C81F5
S1130600882F90E02C81222F30E0220F331F220FFD
S1130610331F2C5F3D4FF901208131812451310971
S1130620880F991F880F991F8C5F9D4FFC013183A0
S113063020838C81C1DD809336028F81882349F029
S1130640809136028095909103028923809303025E
S113065007C09091030280913602892B8093030294
S113066027960FB6F894DEBF0FBECDBFDF91CF91B2
S113067008951F920F9200905F000F921124009032
S11306805B000F922F933F938F939F93EF93FF936E
S1130690CF93DF931F921F92CDB7DEB7F8941A82DF
S11306A019823EC089819A81880F991F8C5D9D4F64
S11306B0FC0180819181892B71F189819A81880F54
S11306C0991F8C5D9D4FFC01808191819C0121507B
S11306D0310989819A81880F991F8C5D9D4FFC0196
S11306E03183208389819A81880F991F8C5D9D4F66
S11306F0FC0180819181892B71F481E090E0098073
S113070002C0880F991F0A94E2F780959091030222
S113071089238093030289819A8101969A8389832C
S113072089819A8108970CF4BDCF78940F900F902B
S1130730DF91CF91FF91EF919F918F913F912F91F5
S11307400F9000925B000F9000925F000F901F903B
S10907501895F894FFCF98
S9030000FC
