S01300004368616E6765537461636B2E73726563D5
S113000071C000008EC000008CC000008AC00000D7
S113001088C0000086C0000084C0000082C00000C8
S113002080C000007EC000007CC000007AC00000D8
S113003078C0000076C0000074C0000072C00000E8
S113004070C000006EC000006CC000006AC00000F8
S113005068C0000066C0000064C0000062C0000008
S113006060C000005EC000005CC000005AC0000018
S113007058C0000056C0000054C0000052C0000028
S113008050C000004EC000004CC000004AC0000038
S113009048C0000046C0000044C0000042C0000048
S11300A040C000003EC000003CC000003AC0000058
S11300B038C0000036C0000034C0000032C0000068
S11300C030C000002EC000002CC000002AC0000078
S11300D028C0000026C0000024C0000022C0000088
S11300E020C0000011241FBECFEFD1E2DEBFCDBF80
S11300F000E00CBF12E0A0E0B2E0E2E4F4E000E0D3
S11301000BBF02C007900D92AC3AB107D9F723E0B8
S1130110ACEAB2E001C01D92AE3AB207E1F794D066
S11301208EC16ECFEDB7FEB720E032E22E1B3F0B3F
S11301303093AD032093AC03BC01621B730B7EBFF1
S11301406DBF8091AC039091AD031816190674F439
S1130150DB0120E030E091919D932F5F3F4F409170
S1130160AC035091AD0324173507ACF3CB010895CC
S1130170CF92DF92EF92FF92CF93DF936A017B01DC
S1130180C82FD0E0CC0FDD1FC050DE4FE881F981CD
S113019088E18183E881F981228360E472E48FE05D
S11301A090E0A7019601D0D0E881F981DA01C90174
S11301B00197A109B10995838483DF91CF91FF90C1
S11301C0EF90DF90CF900895813081F038F0823045
S11301D0A9F08330D9F0E0ECF0E020C0E0ECF0E0EE
S11301E0808185FFFDCF6093C6000895E8ECF0E0C0
S11301F0808185FFFDCF6093CE000895E0EDF0E0AF
S1130200808185FFFDCF6093D6000895E0E3F1E09F
S1130210808185FFFDCF609336010895808185FF3D
S1130220FDCF6093C6000895CF93DF93FC016081F6
S1130230662339F0EC01219680E0C6DF69916111F3
S1130240FBCFDF91CF910895CF93DF93CDB7DEB786
S113025068970FB6F894DEBF0FBECDBF26E030E03E
S113026040E05BE460E070E080E082DF2FEF89E64D
S113027098E1215080409040E1F700C0000088E000
S113028092E0D2DF8BE292E0CFDF0F2EFAEAEF2E7C
S1130290F3E0FF2EF02D8DE292E0C6DF4AE050E05D
S11302A0BE016F5E7F4F8091AC039091AD038AD005
S11302B0CE014196B9DF8BE292E0B6DFEFEFF1EECB
S11302C024E0E150F0402040E1F700C000000DB709
S11302D01EB789E592E0A8DF40E150E0BE01675F08
S11302E07F4FC8016FD0CE0109969EDF89EA92E064
S11302F09BDF8FEF91EEE4E081509040E040E1F726
S113030000C00000F701808191810CDF8C0188E737
S113031092E08ADF40E150E0BE016F5F7F4FC80189
S113032051D0CE01019680DF89EA92E07DDFFFEFB4
S113033021EE84E0F15020408040E1F700C000004D
S11303408BE292E071DFA7CF052E97FB16F40094A1
S11303500FD057FD05D014D007FC02D046F408C0D6
S113036050954095309521953F4F4F4F5F4F0895DD
S113037090958095709561957F4F8F4F9F4F08950D
S1130380A1E21A2EAA1BBB1BFD010DC0AA1FBB1F95
S1130390EE1FFF1FA217B307E407F50720F0A21B07
S11303A0B30BE40BF50B661F771F881F991F1A9474
S11303B069F760957095809590959B01AC01BD019E
S11303C0CF0108954532510518F4423008F004C0B5
S11303D0FB011082CB010895BB274A3031F49923E5
S11303E022F4BDE2909581959F4F01C0BB27FB018C
S11303F05527AA27880F991FAA1FA41710F0A41B1A
S113040083955051B9F7A05DAA3308F0A95DA19373
S1130410009779F7B111B1931192CB0100C0DC01BF
S1130420FC01672F71917723E1F7329704C07C9127
S11304306D9370836291AE17BF07C8F30895F89463
S1050440FFCFE8
S1130442C000C800D00030014845592C20746572A0
S11304526D696E616C2069732073657420757020F8
S1130462636F72726563746C792E200D0057652078
S113047261726520696E20746865206C6F6F7020EC
S113048274657374696E6720737461636B46726119
S11304926D6553697A653A20005468652076616C0B
S11304A27565206F6620746865206F6C64205350F4
S11304B22069733A203078005468652076616C753F
S11304C265206F6620746865206E6577205350201E
S11304D269733A2030780057652061726520696E2D
S10F04E220746865206C6F6F702E0D0094
S9030000FC
