S01300004368616E6765537461636B2E73726563D5
S113000071C000008EC000008CC000008AC00000D7
S113001088C0000086C0000084C0000082C00000C8
S113002080C000007EC000007CC000007AC00000D8
S113003078C0000076C0000074C0000072C00000E8
S113004070C000006EC000006CC000006AC00000F8
S113005068C0000066C0000064C0000062C0000008
S113006060C000005EC000005CC000005AC0000018
S113007058C0000056C0000054C0000052C0000028
S113008050C000004EC000004CC000004AC0000038
S113009048C0000046C0000044C0000042C0000048
S11300A040C000003EC000003CC000003AC0000058
S11300B038C0000036C0000034C0000032C0000068
S11300C030C000002EC000002CC000002AC0000078
S11300D028C0000026C0000024C0000022C0000088
S11300E020C0000011241FBECFEFD1E2DEBFCDBF80
S11300F000E00CBF12E0A0E0B2E0E0ECF4E000E0CD
S11301000BBF02C007900D92A63AB107D9F723E0BE
S1130110A6EAB2E001C01D92A83AB207E1F794D072
S1130120CDC16ECFEDB7FEB720E032E22E1B3F0B00
S11301303093A7032093A603BC01621B730B7EBFFD
S11301406DBF8091A6039091A7031816190674F445
S1130150DB0120E030E091919D932F5F3F4F409170
S1130160A6035091A70324173507ACF3CB010895D8
S1130170CF92DF92EF92FF92CF93DF936A017B01DC
S1130180C82FD0E0CC0FDD1FC050DE4FE881F981CD
S113019088E18183E881F981228360E472E48FE05D
S11301A090E0A70196010FD1E881F981DA01C90134
S11301B00197A109B10995838483DF91CF91FF90C1
S11301C0EF90DF90CF900895813081F038F0823045
S11301D0A9F08330D9F0E0ECF0E020C0E0ECF0E0EE
S11301E0808185FFFDCF6093C6000895E8ECF0E0C0
S11301F0808185FFFDCF6093CE000895E0EDF0E0AF
S1130200808185FFFDCF6093D6000895E0E3F1E09F
S1130210808185FFFDCF609336010895808185FF3D
S1130220FDCF6093C6000895CF93DF93FC016081F6
S1130230662339F0EC01219680E0C6DF69916111F3
S1130240FBCFDF91CF910895CF93DF93CDB7DEB786
S113025068970FB6F894DEBF0FBECDBF26E030E03E
S113026040E05BE460E070E080E082DF2FEF39E69D
S113027088E1215030408040E1F700C00000812C2B
S1130280912CADB6BEB68091A6039091A703EDB7AD
S1130290FEB7E81BF90B0FB6F894FEBF0FBEEDBF17
S11302A02DB73EB72F5F3F4F69010DB71EB784EAE4
S11302B093E038DF7C0188E092E0B6DF4AE050E06A
S11302C0BE016F5F7F4F8091A6039091A703B9D0C1
S11302D0CE010196A9DF83EA92E0A6DF3FEF81EE2B
S11302E094E0315080409040E1F700C0000084E386
S11302F092E09ADF40E150E0BE016F5E7F4FC8019B
S1130300A0D0CE01419690DF82EA92E08DDFEFEF3C
S1130310F1EE24E0E150F0402040E1F700C000009D
S113032083E592E081DF40E150E0BE01675F7F4FEB
S1130330C70187D0CE01099677DF82EA92E074DFA5
S11303403FEF81EE94E0315080409040E1F700C0EF
S1130350000083EA92E068DF82E792E065DF809143
S1130360A6039091A7031816190624F5EFEFEE1AC9
S1130370FE0A082D192DF70182917F0140E150E01A
S1130380B60190E05ED0C6014FDF83EA92E04CDF15
S1130390FFEF21EE34E0F15020403040E1F700C09F
S11303A000000F5F1F4F8091A6039091A7030817C9
S11303B019070CF383EA92E037DF0FB6F894BEBE58
S11303C00FBEADBE5ECF052E97FB16F400940FD082
S11303D057FD05D014D007FC02D046F408C0509550
S11303E04095309521953F4F4F4F5F4F089590951D
S11303F08095709561957F4F8F4F9F4F0895A1E22F
S11304001A2EAA1BBB1BFD010DC0AA1FBB1FEE1F8A
S1130410FF1FA217B307E407F50720F0A21BB30BD5
S1130420E40BF50B661F771F881F991F1A9469F751
S113043060957095809590959B01AC01BD01CF01AD
S113044008954532510518F4423008F004C0FB0108
S11304501082CB010895BB274A3031F4992322F44A
S1130460BDE2909581959F4F01C0BB27FB015527A5
S1130470AA27880F991FAA1FA41710F0A41B8395FD
S11304805051B9F7A05DAA3308F0A95DA193009774
S113049079F7B111B1931192CB0100C0DC01FC01D9
S11304A0672F71917723E1F7329704C07C916D93A4
S11304B070836291AE17BF07C8F30895F894FFCF15
S11304C0C000C800D0003001576520617265206902
S11304D06E20746865206C6F6F7020746573746926
S11304E06E6720737461636B4672616D6553697ADC
S11304F0653A20005468652076616C7565206F66E6
S113050020746865206F6C642053502069733A200E
S11305103078005468652076616C7565206F6620BC
S1130520746865206E65772053502069733A2030D3
S113053078005468652076616C756573206F6E2051
S113054074686520737461636B206172653A0D0091
S113055057652061726520696E20746865206C6F30
S10905606F702E0D000077
S9030000FC
