:1000000071C0000079C0000077C0000075C000001A
:1000100073C0000071C000006FC000006DC0000020
:100020006BC0000069C0000067C0000065C0000030
:1000300063C0000061C000005FC000005DC0000040
:100040005BC0000059C0000057C0000055C0000050
:1000500053C0000051C000004FC000004DC0000060
:100060004BC0000049C0000047C0000045C0000070
:1000700043C0000041C000003FC000003DC0000080
:100080003BC0000039C0000037C0000035C0000090
:1000900033C0000031C000002FC000002DC00000A0
:1000A0002BC0000029C0000027C0000025C00000B0
:1000B00023C0000021C000001FC000001DC00000C0
:1000C0001BC0000019C0000017C0000015C00000D0
:1000D00013C0000011C000000FC000000DC00000E0
:1000E0000BC0000011241FBECFEFD1E2DEBFCDBF99
:1000F00000E00CBF02D089C083CFCF93DF93CDB790
:10010000DEB7C258D1090FB6F894DEBF0FBECDBF1F
:100110001A8219820FC049819E012D5F3F4F89814C
:100120009A81820F931FFC01408389819A810196F5
:100130009A83898389819A818038910564F3CE01FD
:10014000039601D0FFCFCF93DF93CDB7DEB72A97C9
:100150000FB6F894DEBF0FBECDBF9A878987F8949B
:100160008DE590E0FC01808191819C838B838DE5FE
:1001700090E0FC01808191818D5192429E838D831C
:100180008D819E8129853A85820F931F98878F8361
:1001900081E090E09A83898315C089819A812F81BB
:1001A0003885820F931F29813A814B815C81240F0E
:1001B000351FF9012081FC01208389819A810196F4
:1001C0009A83898389819A812B813C81820F931F35
:1001D0008F3F914214F38DE590E029853A85F9012E
:1001E0002081222F30E0FC013183208378948DE53B
:1001F00090E0FC01808191812A960FB6F894DEBFD1
:0E0200000FBECDBFDF91CF910895F894FFCFD0
:00000001FF
