S00F00005053657269616C2E7372656365
S113000071C000008EC000008CC000008AC00000D7
S113001088C0000086C0000084C0000082C00000C8
S113002080C000007EC000007CC000007AC00000D8
S113003078C0000076C0000074C0000072C00000E8
S113004070C000006EC000006CC000006AC00000F8
S113005068C0000066C0000064C0000062C0000008
S113006060C000005EC000005CC000005AC0000018
S113007058C0000056C0000054C0000052C0000028
S113008050C000004EC000004CC000004AC0000038
S113009048C0000046C0000044C0000042C0000048
S11300A040C000003EC000003CC000003AC0000058
S11300B038C0000036C0000034C0000032C0000068
S11300C030C000002EC000002CC000002AC0000078
S11300D028C0000026C0000024C0000022C0000088
S11300E020C0000011241FBECFEFD1E2DEBFCDBF80
S11300F000E00CBF12E0A0E0B2E0EEE0F3E000E0CC
S11301000BBF02C007900D92A830B107D9F722E0C7
S1130110A8E0B2E001C01D92AA30B207E1F702D014
S1130120F4C06ECF46E050E068E572E080E090E015
S113013093D081E039D0682F80E059D0FACFCF92A4
S1130140DF92EF92FF92CF93DF936A017B01C82F76
S1130150D0E0CC0FDD1FC050DE4FE881F98188E18B
S11301608183E881F981228360E472E48FE090E086
S1130170A70196018CD0BA01A90141505109610926
S11301807109E881F981BB2777FDBA95A72F962FCE
S1130190852F8583E881F9814483DF91CF91FF9096
S11301A0EF90DF90CF900895E82F813049F028F048
S11301B0823049F0833051F00CC08091C6000BC0EE
S11301C08091CE0008C08091D60005C08091360190
S11301D002C08091C600F0E0EE0FFF1FE050FE4F1A
S11301E00190F081E02D90819923ECF708958130FE
S11301F069F028F0823089F08330B1F01CC020E22D
S113020030E030930902209308021BC020E230E062
S1130210309309022093080214C020E230E03093A6
S11302200902209308020DC020E230E03093090255
S11302302093080206C020E230E0309309022093A4
S11302400802E82FF0E0EE0FFF1FE050FE4F019090
S1130250F081E02D66830895CF92DF92EF92FF92B2
S11302600F931F93CF936B017C018A01C0E0980127
S1130270B701A6018C2F63DFCF5FC430C1F7CF91E4
S11302801F910F91FF90EF90DF90CF900895052E6E
S113029097FB16F400940FD057FD05D014D007FC3B
S11302A002D046F408C050954095309521953F4FB3
S11302B04F4F5F4F089590958095709561957F4F4E
S11302C08F4F9F4F0895A1E21A2EAA1BBB1BFD015D
S11302D00DC0AA1FBB1FEE1FFF1FA217B307E40721
S11302E0F50720F0A21BB30BE40BF50B661F771F79
S11302F0881F991F1A9469F7609570958095909559
S11103009B01AC01BD01CF010895F894FFCF1D
S10B030EC000C800D00030015A
S9030000FC
