S0160000427574746F6E466C617368496E742E7372656379
S113000071C000008EC000008CC000008AC00000D7
S113001088C0000086C0000084C0000082C00000C8
S113002080C000007EC000007CC000007BC00000D7
S113003078C0000076C0000074C0000072C00000E8
S113004070C000006EC000006CC000006AC00000F8
S113005068C0000066C0000064C0000062C0000008
S113006060C000005EC000005CC000005AC0000018
S113007058C0000056C0000054C0000052C0000028
S113008050C000004EC000004CC000004AC0000038
S113009048C0000046C0000044C0000042C0000048
S11300A040C000003EC000003CC000003AC0000058
S11300B038C0000036C0000034C0000032C0000068
S11300C030C000002EC000002CC000002AC0000078
S11300D028C0000026C0000024C0000022C0000088
S11300E020C0000011241FBECFEFD1E2DEBFCDBF80
S11300F000E00CBF12E0A0E0B2E0EAECF2E000E0C5
S11301000BBF02C007900D92A230B107D9F722E0CD
S1130110A2E0B2E001C01D92A430B207E1F7B7D06B
S1130120D2C06ECF1F920F920FB60F9211240BB64E
S11301300F928F939F93EF93FF93E6E0F1E080811A
S113014090910002892790819093000280FF08C05B
S11301508091060180FF0DC081E08093030209C0F5
S113016081FF07C08091060181FF03C081E0809375
S11301700202FF91EF919F918F910F900BBE0F9010
S11301800FBE0F901F90189581B3807F81BB81B300
S11301908F6081BB2FEF83EC99E021508040904029
S11301A0E1F700C0000081B3807F81BB2FEF83ECB7
S11301B099E0215080409040E1F700C00000809118
S11301C00302813021F4109203021BD0E0CF80910E
S11301D002028130E1F61092020201D0D8CF81B33D
S11301E0807F81BB80910302813021F4109203024D
S11301F008D0F8CF809102028130A1F71092020258
S1130200C3DF81B3807F81BB61E070E0889A809115
S11302100302813099F080910202813061F515C0AA
S113022021B3CB01042E02C0880F991F0A94E2F770
S1130230282B21BB20910302213019F410920302D0
S1130240CEDF20910202213019F4109202029CDFC9
S11302502FEF33ECE9E021503040E040E1F700C0FB
S1130260000091B38095892381BB4F5F5F4F443079
S11302705105B1F6CBCF2FEF33EC89E0215030405C
S11302808040E1F700C000008898AB01C9CF8FE03F
S113029080BB11BAE8E0F1E0808183608083E7E00D
S11302A0F1E080818C7F8083EDE6F0E080818160E5
S11302B08083808182608083E8E6F0E080818460CE
S10D02C0808378948CDFF894FFCF5C
S10502CAFF002F
S9030000FC
